:03000000020945AD
:0C094500787FE4F6D8FD75817902098CFA
:1009D1000125000B454C6576656C3A2046756C6CBB
:1009E1000F164C6576656C3A20332F342046756CB2
:1009F1006C0B304C6576656C3A2048616C660E5024
:100A01004C6576656C3A20517561727465720E5E43
:100A11004C6576656C3A20556E6B6E6F776E0E087D
:100A21004D4F544F522044495341424C45440A6C66
:100A31004D6F746F723A204F4E200A264D6F746FBE
:100A4100723A204F46460A3B436C6F73696E6720CA
:020A51005673DA
:03000300020BB33A
:030BB300052532E3
:100A5400D288D2A8D2AFC2B4C2B5C2B6C2B7C2900D
:100A6400C291D293D294D295D296120B1230B4077B
:100A74003093FA7F41801C30B5073094F07F428078
:100A84001230B6073095E67F43800830B70A3096B7
:100A9400DC7F4412080080D53097D27F55120800BD
:020AA40080CB05
:10080000EF24BE604A1470030208911470030208BA
:10081000D62403600302090F120B98120B8A120BE5
:100820005EE4F5767445120ACC0576E576C3940B42
:1008300040F2120AA6120B74E4F5767426120ACC62
:100840000576E576C3940A40F2C293D294803E12B4
:100850000B8A120B5EE4F5767416120ACC0576E567
:1008600076C3940F40F2120B74E4F5762090047472
:10087000268002746C2576F8E6F5A07F01120AD472
:100880000576E576C3940A40E3D293C294D295806C
:1008900040120B8A120B5EE4F5767430120ACC0516
:1008A00076E576C3940B40F2120B74E4F576209053
:1008B0000474268002746C2576F8E6F5A07F011298
:1008C0000AD40576E576C3940A40E3D293D294C263
:1008D00095D296D29722120B8A120B5EE4F57674AB
:1008E00050120ACC0576E576C3940E40F2120B74D2
:1008F000E4F576746C120ACC0576E576C3940A406A
:10090000F2120BAED293D294D295C296D297221203
:100910000B5EE4F576745E120ACC0576E576C39438
:100920000E40F2120AA6120B74E4F5767408120A4D
:10093000CC0576E576C3940E40F2D293D294D2954C
:04094000D296C297F2
:010944002290
:100B1200C2B1C2B0D2B3120B2E120BA475A0387F91
:0C0B220004120AD475A00F7F01020AD44F
:050BA400C2B1C2B02245
:050BA900C2B1D2B02230
:080ACC002576F8E6F5A07F0194
:020AD4008F7819
:100AD600E4F579E579C39578500FD2B37F027E00AD
:090AE600120AF0C2B3057980EA9E
:010AEF0022E4
:100B5E00120BA475A0807F01120AD4E4F5A0120B2B
:060B6E00A97F01020AD478
:100B7400120BA475A0C07F01120AD4E4F5A0120BD5
:060B8400A97F01020AD462
:0E0B8A00120B2E120BA475A0017F01020AD4DB
:0C0B9800C2927F037E00120AF0D292226B
:100B2E0053890F438901758CFC758A66C28DD28CF0
:080B3E00308DFDC28CC28D2236
:100B460053890F438901758CFF758AA4C28DD28C97
:080B5600308DFDC28CC28D221E
:100AF000E4FDEDC39FE49E501853890F43890175AF
:100B00008AFD758C4BD28C308DFDC28CC28D0D80D0
:010B1000E103
:010B110022C1
:050BAE00D290C291226B
:100AA600C290D291120B74E4F577743B2577120A43
:100AB600CE0577E577C3940A40F07FC87E00120A18
:050AC600F0C290C29196
:010ACB002208
:10095100020A54E493A3F8E493A34003F68001F25E
:1009610008DFF48029E493A3F85407240CC8C333A7
:10097100C4540F4420C8834004F456800146F6DF76
:10098100E4800B01020408102040809009D1E47E2C
:10099100019360BCA3FF543F30E509541FFEE4936B
:1009A100A360010ECF54C025E060A840B8E493A332
:1009B100FAE493A3F8E493A3C8C582C8CAC583CA5D
:1009C100F0A3C8C582C8CAC583CADFE9DEE780BE15
:010A530000A2
:00000001FF
